{
  "_format": "hh-sol-artifact-1",
  "contractName": "ViddhanaKYC",
  "sourceName": "contracts/ViddhanaKYC.sol",
  "abi": [
    {
      "inputs": [],
      "stateMutability": "nonpayable",
      "type": "constructor"
    },
    {
      "anonymous": false,
      "inputs": [
        {
          "indexed": false,
          "internalType": "address[]",
          "name": "accounts",
          "type": "address[]"
        },
        {
          "indexed": false,
          "internalType": "bool",
          "name": "status",
          "type": "bool"
        },
        {
          "indexed": false,
          "internalType": "uint256",
          "name": "timestamp",
          "type": "uint256"
        }
      ],
      "name": "BatchKYCUpdated",
      "type": "event"
    },
    {
      "anonymous": false,
      "inputs": [
        {
          "indexed": true,
          "internalType": "address",
          "name": "account",
          "type": "address"
        },
        {
          "indexed": false,
          "internalType": "bool",
          "name": "status",
          "type": "bool"
        },
        {
          "indexed": false,
          "internalType": "uint256",
          "name": "timestamp",
          "type": "uint256"
        }
      ],
      "name": "KYCUpdated",
      "type": "event"
    },
    {
      "anonymous": false,
      "inputs": [
        {
          "indexed": true,
          "internalType": "address",
          "name": "previousOwner",
          "type": "address"
        },
        {
          "indexed": true,
          "internalType": "address",
          "name": "newOwner",
          "type": "address"
        }
      ],
      "name": "OwnershipTransferred",
      "type": "event"
    },
    {
      "anonymous": false,
      "inputs": [
        {
          "indexed": false,
          "internalType": "address",
          "name": "account",
          "type": "address"
        }
      ],
      "name": "Paused",
      "type": "event"
    },
    {
      "anonymous": false,
      "inputs": [
        {
          "indexed": false,
          "internalType": "address",
          "name": "account",
          "type": "address"
        }
      ],
      "name": "Unpaused",
      "type": "event"
    },
    {
      "inputs": [
        {
          "internalType": "address[]",
          "name": "accounts",
          "type": "address[]"
        },
        {
          "internalType": "bool",
          "name": "status",
          "type": "bool"
        }
      ],
      "name": "batchSetKYC",
      "outputs": [],
      "stateMutability": "nonpayable",
      "type": "function"
    },
    {
      "inputs": [
        {
          "internalType": "address",
          "name": "account",
          "type": "address"
        }
      ],
      "name": "getKYCInfo",
      "outputs": [
        {
          "internalType": "bool",
          "name": "status",
          "type": "bool"
        },
        {
          "internalType": "uint256",
          "name": "timestamp",
          "type": "uint256"
        }
      ],
      "stateMutability": "view",
      "type": "function"
    },
    {
      "inputs": [
        {
          "internalType": "address",
          "name": "account",
          "type": "address"
        }
      ],
      "name": "getKYCTimestamp",
      "outputs": [
        {
          "internalType": "uint256",
          "name": "",
          "type": "uint256"
        }
      ],
      "stateMutability": "view",
      "type": "function"
    },
    {
      "inputs": [
        {
          "internalType": "address",
          "name": "account",
          "type": "address"
        }
      ],
      "name": "isKYC",
      "outputs": [
        {
          "internalType": "bool",
          "name": "",
          "type": "bool"
        }
      ],
      "stateMutability": "view",
      "type": "function"
    },
    {
      "inputs": [],
      "name": "owner",
      "outputs": [
        {
          "internalType": "address",
          "name": "",
          "type": "address"
        }
      ],
      "stateMutability": "view",
      "type": "function"
    },
    {
      "inputs": [],
      "name": "pause",
      "outputs": [],
      "stateMutability": "nonpayable",
      "type": "function"
    },
    {
      "inputs": [],
      "name": "paused",
      "outputs": [
        {
          "internalType": "bool",
          "name": "",
          "type": "bool"
        }
      ],
      "stateMutability": "view",
      "type": "function"
    },
    {
      "inputs": [],
      "name": "renounceOwnership",
      "outputs": [],
      "stateMutability": "nonpayable",
      "type": "function"
    },
    {
      "inputs": [
        {
          "internalType": "address",
          "name": "account",
          "type": "address"
        },
        {
          "internalType": "bool",
          "name": "status",
          "type": "bool"
        }
      ],
      "name": "setKYC",
      "outputs": [],
      "stateMutability": "nonpayable",
      "type": "function"
    },
    {
      "inputs": [],
      "name": "totalKYCCount",
      "outputs": [
        {
          "internalType": "uint256",
          "name": "",
          "type": "uint256"
        }
      ],
      "stateMutability": "view",
      "type": "function"
    },
    {
      "inputs": [
        {
          "internalType": "address",
          "name": "newOwner",
          "type": "address"
        }
      ],
      "name": "transferOwnership",
      "outputs": [],
      "stateMutability": "nonpayable",
      "type": "function"
    },
    {
      "inputs": [],
      "name": "unpause",
      "outputs": [],
      "stateMutability": "nonpayable",
      "type": "function"
    }
  ],
  "bytecode": "0x608060405234801561001057600080fd5b5061001a3361002c565b6000805460ff60a01b1916905561007c565b600080546001600160a01b038381166001600160a01b0319831681178455604051919092169283917f8be0079c531659141344cd1fd0a4f28419497f9722a3daafe3b4186f6b6457e09190a35050565b610ac98061008b6000396000f3fe608060405234801561001057600080fd5b50600436106100b45760003560e01c80638da5cb5b116100715780638da5cb5b14610140578063958028041461015b5780639944f518146101ac5780639b3c6b22146101d8578063b8de64fb146101eb578063f2fde38b146101f357600080fd5b8063037b1963146100b95780633f4ba83a146100f55780635123bacc146100ff5780635c975abb14610112578063715018a6146101305780638456cb5914610138575b600080fd5b6100e26100c73660046108b3565b6001600160a01b031660009081526002602052604090205490565b6040519081526020015b60405180910390f35b6100fd610206565b005b6100fd61010d3660046108e5565b610218565b600054600160a01b900460ff165b60405190151581526020016100ec565b6100fd6103bf565b6100fd6103d1565b6000546040516001600160a01b0390911681526020016100ec565b6101956101693660046108b3565b6001600160a01b031660009081526001602090815260408083205460029092529091205460ff90911691565b6040805192151583526020830191909152016100ec565b6101206101ba3660046108b3565b6001600160a01b031660009081526001602052604090205460ff1690565b6100fd6101e6366004610918565b6103e1565b6003546100e2565b6100fd6102013660046108b3565b61063f565b61020e6106b8565b610216610712565b565b6102206106b8565b610228610767565b6001600160a01b0382166102575760405162461bcd60e51b815260040161024e9061099c565b60405180910390fd5b6001600160a01b03821660009081526001602052604090205481151560ff9091161515036102c75760405162461bcd60e51b815260206004820152601d60248201527f5669646468616e614b59433a2073746174757320756e6368616e676564000000604482015260640161024e565b8080156102ed57506001600160a01b03821660009081526001602052604090205460ff16155b1561030c5760038054906000610302836109f7565b919050555061034d565b8015801561033257506001600160a01b03821660009081526001602052604090205460ff165b1561034d576003805490600061034783610a10565b91905055505b6001600160a01b0382166000818152600160209081526040808320805460ff1916861515908117909155600283529281902042908190558151938452918301919091527f80c26f5c255b344c21ce987835b0e9e2cb947ac7574ca982e1e64e8e705dc51a910160405180910390a25050565b6103c76106b8565b61021660006107b4565b6103d96106b8565b610216610804565b6103e96106b8565b6103f1610767565b816104485760405162461bcd60e51b815260206004820152602160248201527f5669646468616e614b59433a20656d707479206163636f756e747320617272616044820152607960f81b606482015260840161024e565b60648211156104a75760405162461bcd60e51b815260206004820152602560248201527f5669646468616e614b59433a2062617463682073697a652065786365656473206044820152641b1a5b5a5d60da1b606482015260840161024e565b4260005b838110156105fb5760008585838181106104c7576104c7610a27565b90506020020160208101906104dc91906108b3565b90506001600160a01b0381166105045760405162461bcd60e51b815260040161024e9061099c565b6001600160a01b03811660009081526001602052604090205484151560ff90911615150361053257506105e9565b83801561055857506001600160a01b03811660009081526001602052604090205460ff16155b15610577576003805490600061056d836109f7565b91905055506105b8565b8315801561059d57506001600160a01b03811660009081526001602052604090205460ff165b156105b857600380549060006105b283610a10565b91905055505b6001600160a01b03166000908152600160209081526040808320805460ff1916871515179055600290915290208290555b806105f3816109f7565b9150506104ab565b507f34bf437178fea540f9f924a24b5b12a0b0c84a4733ecc190ba5434577ea0ab01848484846040516106319493929190610a3d565b60405180910390a150505050565b6106476106b8565b6001600160a01b0381166106ac5760405162461bcd60e51b815260206004820152602660248201527f4f776e61626c653a206e6577206f776e657220697320746865207a65726f206160448201526564647265737360d01b606482015260840161024e565b6106b5816107b4565b50565b6000546001600160a01b031633146102165760405162461bcd60e51b815260206004820181905260248201527f4f776e61626c653a2063616c6c6572206973206e6f7420746865206f776e6572604482015260640161024e565b61071a610847565b6000805460ff60a01b191690557f5db9ee0a495bf2e6ff9c91a7834c1ba4fdd244a5e8aa4e537bd38aeae4b073aa335b6040516001600160a01b03909116815260200160405180910390a1565b600054600160a01b900460ff16156102165760405162461bcd60e51b815260206004820152601060248201526f14185d5cd8589b194e881c185d5cd95960821b604482015260640161024e565b600080546001600160a01b038381166001600160a01b0319831681178455604051919092169283917f8be0079c531659141344cd1fd0a4f28419497f9722a3daafe3b4186f6b6457e09190a35050565b61080c610767565b6000805460ff60a01b1916600160a01b1790557f62e78cea01bee320cd4e420270b5ea74000d11b0c9f74754ebdbfc544b05a25861074a3390565b600054600160a01b900460ff166102165760405162461bcd60e51b815260206004820152601460248201527314185d5cd8589b194e881b9bdd081c185d5cd95960621b604482015260640161024e565b80356001600160a01b03811681146108ae57600080fd5b919050565b6000602082840312156108c557600080fd5b6108ce82610897565b9392505050565b803580151581146108ae57600080fd5b600080604083850312156108f857600080fd5b61090183610897565b915061090f602084016108d5565b90509250929050565b60008060006040848603121561092d57600080fd5b833567ffffffffffffffff8082111561094557600080fd5b818601915086601f83011261095957600080fd5b81358181111561096857600080fd5b8760208260051b850101111561097d57600080fd5b60209283019550935061099391860190506108d5565b90509250925092565b60208082526025908201527f5669646468616e614b59433a207a65726f2061646472657373206e6f7420616c6040820152641b1bddd95960da1b606082015260800190565b634e487b7160e01b600052601160045260246000fd5b600060018201610a0957610a096109e1565b5060010190565b600081610a1f57610a1f6109e1565b506000190190565b634e487b7160e01b600052603260045260246000fd5b6060808252810184905260008560808301825b87811015610a7e576001600160a01b03610a6984610897565b16825260209283019290910190600101610a50565b5094151560208401525050604001529291505056fea2646970667358221220e76914a073d052fad17de70dea7a73add52c225e58decd5327cb85016ba36ec664736f6c63430008130033",
  "linkReferences": {},
  "deployedLinkReferences": {}
}